{
  "contractName": "NewDocument",
  "abi": [
    {
      "inputs": [
        {
          "internalType": "bytes32",
          "name": "_Verifier",
          "type": "bytes32"
        },
        {
          "internalType": "string",
          "name": "_IPFSaddress",
          "type": "string"
        },
        {
          "internalType": "uint256",
          "name": "_numberOfSigners",
          "type": "uint256"
        }
      ],
      "payable": false,
      "stateMutability": "nonpayable",
      "type": "constructor"
    },
    {
      "anonymous": false,
      "inputs": [
        {
          "indexed": true,
          "internalType": "bytes32",
          "name": "_verifier",
          "type": "bytes32"
        }
      ],
      "name": "DocRevoked",
      "type": "event"
    },
    {
      "anonymous": false,
      "inputs": [
        {
          "indexed": true,
          "internalType": "address",
          "name": "_signer",
          "type": "address"
        }
      ],
      "name": "Revoked",
      "type": "event"
    },
    {
      "anonymous": false,
      "inputs": [
        {
          "indexed": true,
          "internalType": "address",
          "name": "_signer",
          "type": "address"
        }
      ],
      "name": "Signed",
      "type": "event"
    },
    {
      "constant": true,
      "inputs": [],
      "name": "IPFSaddress",
      "outputs": [
        {
          "internalType": "string",
          "name": "",
          "type": "string"
        }
      ],
      "payable": false,
      "stateMutability": "view",
      "type": "function"
    },
    {
      "constant": true,
      "inputs": [],
      "name": "documentTimeStamp",
      "outputs": [
        {
          "internalType": "uint256",
          "name": "",
          "type": "uint256"
        }
      ],
      "payable": false,
      "stateMutability": "view",
      "type": "function"
    },
    {
      "constant": true,
      "inputs": [],
      "name": "factoryAddress",
      "outputs": [
        {
          "internalType": "address",
          "name": "",
          "type": "address"
        }
      ],
      "payable": false,
      "stateMutability": "view",
      "type": "function"
    },
    {
      "constant": true,
      "inputs": [],
      "name": "issuer",
      "outputs": [
        {
          "internalType": "address",
          "name": "",
          "type": "address"
        }
      ],
      "payable": false,
      "stateMutability": "view",
      "type": "function"
    },
    {
      "constant": true,
      "inputs": [],
      "name": "numberOfSigners",
      "outputs": [
        {
          "internalType": "uint256",
          "name": "",
          "type": "uint256"
        }
      ],
      "payable": false,
      "stateMutability": "view",
      "type": "function"
    },
    {
      "constant": true,
      "inputs": [],
      "name": "revokeCounter",
      "outputs": [
        {
          "internalType": "uint256",
          "name": "",
          "type": "uint256"
        }
      ],
      "payable": false,
      "stateMutability": "view",
      "type": "function"
    },
    {
      "constant": true,
      "inputs": [
        {
          "internalType": "address",
          "name": "",
          "type": "address"
        }
      ],
      "name": "signers",
      "outputs": [
        {
          "internalType": "uint256",
          "name": "signatureTimeStamp",
          "type": "uint256"
        },
        {
          "internalType": "bytes",
          "name": "signature",
          "type": "bytes"
        },
        {
          "internalType": "bool",
          "name": "isValid",
          "type": "bool"
        },
        {
          "internalType": "uint256",
          "name": "revokedSig",
          "type": "uint256"
        }
      ],
      "payable": false,
      "stateMutability": "view",
      "type": "function"
    },
    {
      "constant": true,
      "inputs": [
        {
          "internalType": "uint256",
          "name": "",
          "type": "uint256"
        }
      ],
      "name": "signersArray",
      "outputs": [
        {
          "internalType": "address",
          "name": "",
          "type": "address"
        }
      ],
      "payable": false,
      "stateMutability": "view",
      "type": "function"
    },
    {
      "constant": true,
      "inputs": [],
      "name": "status",
      "outputs": [
        {
          "internalType": "enum NewDocument.Status",
          "name": "",
          "type": "uint8"
        }
      ],
      "payable": false,
      "stateMutability": "view",
      "type": "function"
    },
    {
      "constant": true,
      "inputs": [],
      "name": "verifier",
      "outputs": [
        {
          "internalType": "bytes32",
          "name": "",
          "type": "bytes32"
        }
      ],
      "payable": false,
      "stateMutability": "view",
      "type": "function"
    },
    {
      "constant": true,
      "inputs": [],
      "name": "signersList",
      "outputs": [
        {
          "internalType": "address[]",
          "name": "",
          "type": "address[]"
        }
      ],
      "payable": false,
      "stateMutability": "view",
      "type": "function"
    },
    {
      "constant": false,
      "inputs": [
        {
          "internalType": "bytes32",
          "name": "_verifier",
          "type": "bytes32"
        },
        {
          "internalType": "bytes",
          "name": "_signature",
          "type": "bytes"
        }
      ],
      "name": "signDocument",
      "outputs": [
        {
          "internalType": "bool",
          "name": "success",
          "type": "bool"
        }
      ],
      "payable": false,
      "stateMutability": "nonpayable",
      "type": "function"
    },
    {
      "constant": true,
      "inputs": [
        {
          "internalType": "bytes",
          "name": "sig",
          "type": "bytes"
        },
        {
          "internalType": "bytes32",
          "name": "_hash",
          "type": "bytes32"
        }
      ],
      "name": "verify",
      "outputs": [
        {
          "internalType": "address",
          "name": "",
          "type": "address"
        }
      ],
      "payable": false,
      "stateMutability": "pure",
      "type": "function"
    },
    {
      "constant": false,
      "inputs": [
        {
          "internalType": "uint8",
          "name": "_number",
          "type": "uint8"
        }
      ],
      "name": "setNumeberOfSigners",
      "outputs": [],
      "payable": false,
      "stateMutability": "nonpayable",
      "type": "function"
    },
    {
      "constant": false,
      "inputs": [
        {
          "internalType": "bytes32",
          "name": "_verifier",
          "type": "bytes32"
        },
        {
          "internalType": "bytes",
          "name": "_signature",
          "type": "bytes"
        }
      ],
      "name": "revokeSignature",
      "outputs": [],
      "payable": false,
      "stateMutability": "nonpayable",
      "type": "function"
    }
  ],
  "bytecode": "0x60806040523480156200001157600080fd5b50604051620014a7380380620014a7833981810160405260608110156200003757600080fd5b8101908080519060200190929190805160405193929190846401000000008211156200006257600080fd5b838201915060208201858111156200007957600080fd5b82518660018202830111640100000000821117156200009757600080fd5b8083526020830192505050908051906020019080838360005b83811015620000cd578082015181840152602081019050620000b0565b50505050905090810190601f168015620000fb5780820380516001836020036101000a031916815260200191505b506040526020018051906020019092919050505033600460006101000a81548173ffffffffffffffffffffffffffffffffffffffff021916908373ffffffffffffffffffffffffffffffffffffffff160217905550816006908051906020019062000168929190620001ac565b504260018190555082600581905550806002819055506000600860006101000a81548160ff021916908360028111156200019e57fe5b02179055505050506200025b565b828054600181600116156101000203166002900490600052602060002090601f016020900481019282601f10620001ef57805160ff191683800117855562000220565b8280016001018555821562000220579182015b828111156200021f57825182559160200191906001019062000202565b5b5090506200022f919062000233565b5090565b6200025891905b80821115620002545760008160009055506001016200023a565b5090565b90565b61123c806200026b6000396000f3fe608060405234801561001057600080fd5b50600436106100f55760003560e01c8063736c0d5b11610097578063a4c96e7511610066578063a4c96e75146104ed578063b2412e78146105ca578063ce493241146105e8578063eea111a9146106ad576100f5565b8063736c0d5b1461037e5780637d7c3a90146104545780637f592db614610472578063966dae0e146104a3576100f5565b8063363296a4116100d3578063363296a41461018e57806353ffd45b146101ac57806356e424281461020b5780636b40634114610279576100f5565b80631d143848146100fa578063200d2ed2146101445780632b7ac3f314610170575b600080fd5b610102610730565b604051808273ffffffffffffffffffffffffffffffffffffffff1673ffffffffffffffffffffffffffffffffffffffff16815260200191505060405180910390f35b61014c610756565b6040518082600281111561015c57fe5b60ff16815260200191505060405180910390f35b610178610769565b6040518082815260200191505060405180910390f35b61019661076f565b6040518082815260200191505060405180910390f35b6101b4610775565b6040518080602001828103825283818151815260200191508051906020019060200280838360005b838110156101f75780820151818401526020810190506101dc565b505050509050019250505060405180910390f35b6102376004803603602081101561022157600080fd5b8101908080359060200190929190505050610803565b604051808273ffffffffffffffffffffffffffffffffffffffff1673ffffffffffffffffffffffffffffffffffffffff16815260200191505060405180910390f35b61033c6004803603604081101561028f57600080fd5b81019080803590602001906401000000008111156102ac57600080fd5b8201836020820111156102be57600080fd5b803590602001918460018302840111640100000000831117156102e057600080fd5b91908080601f016020809104026020016040519081016040528093929190818152602001838380828437600081840152601f19601f8201169050808301925050505050505091929192908035906020019092919050505061083f565b604051808273ffffffffffffffffffffffffffffffffffffffff1673ffffffffffffffffffffffffffffffffffffffff16815260200191505060405180910390f35b6103c06004803603602081101561039457600080fd5b81019080803573ffffffffffffffffffffffffffffffffffffffff1690602001909291905050506108db565b604051808581526020018060200184151515158152602001838152602001828103825285818151815260200191508051906020019080838360005b838110156104165780820151818401526020810190506103fb565b50505050905090810190601f1680156104435780820380516001836020036101000a031916815260200191505b509550505050505060405180910390f35b61045c6109b0565b6040518082815260200191505060405180910390f35b6104a16004803603602081101561048857600080fd5b81019080803560ff1690602001909291905050506109b6565b005b6104ab610a86565b604051808273ffffffffffffffffffffffffffffffffffffffff1673ffffffffffffffffffffffffffffffffffffffff16815260200191505060405180910390f35b6105b06004803603604081101561050357600080fd5b81019080803590602001909291908035906020019064010000000081111561052a57600080fd5b82018360208201111561053c57600080fd5b8035906020019184600183028401116401000000008311171561055e57600080fd5b91908080601f016020809104026020016040519081016040528093929190818152602001838380828437600081840152601f19601f820116905080830192505050505050509192919290505050610aab565b604051808215151515815260200191505060405180910390f35b6105d2610e36565b6040518082815260200191505060405180910390f35b6106ab600480360360408110156105fe57600080fd5b81019080803590602001909291908035906020019064010000000081111561062557600080fd5b82018360208201111561063757600080fd5b8035906020019184600183028401116401000000008311171561065957600080fd5b91908080601f016020809104026020016040519081016040528093929190818152602001838380828437600081840152601f19601f820116905080830192505050505050509192919290505050610e3c565b005b6106b5610fca565b6040518080602001828103825283818151815260200191508051906020019080838360005b838110156106f55780820151818401526020810190506106da565b50505050905090810190601f1680156107225780820380516001836020036101000a031916815260200191505b509250505060405180910390f35b600460009054906101000a900473ffffffffffffffffffffffffffffffffffffffff1681565b600860009054906101000a900460ff1681565b60055481565b60015481565b606060078054806020026020016040519081016040528092919081815260200182805480156107f957602002820191906000526020600020905b8160009054906101000a900473ffffffffffffffffffffffffffffffffffffffff1673ffffffffffffffffffffffffffffffffffffffff16815260200190600101908083116107af575b5050505050905090565b6007818154811061081057fe5b906000526020600020016000915054906101000a900473ffffffffffffffffffffffffffffffffffffffff1681565b6000604183511461084f57600080fd5b600080600061085d86611068565b80945081955082935050505060018582858560405160008152602001604052604051808581526020018460ff1660ff1681526020018381526020018281526020019450505050506020604051602081039080840390855afa1580156108c6573d6000803e3d6000fd5b50505060206040510351935050505092915050565b6009602052806000526040600020600091509050806000015490806001018054600181600116156101000203166002900480601f01602080910402602001604051908101604052809291908181526020018280546001816001161561010002031660029004801561098d5780601f106109625761010080835404028352916020019161098d565b820191906000526020600020905b81548152906001019060200180831161097057829003601f168201915b5050505050908060020160009054906101000a900460ff16908060030154905084565b60025481565b600460009054906101000a900473ffffffffffffffffffffffffffffffffffffffff1673ffffffffffffffffffffffffffffffffffffffff163373ffffffffffffffffffffffffffffffffffffffff1614610a79576040517f08c379a00000000000000000000000000000000000000000000000000000000081526004018080602001828103825260168152602001807f6f6e6c79206973737565722063616e206368616e67650000000000000000000081525060200191505060405180910390fd5b8060ff1660028190555050565b6000809054906101000a900473ffffffffffffffffffffffffffffffffffffffff1681565b600080610ab8838561083f565b90503373ffffffffffffffffffffffffffffffffffffffff168173ffffffffffffffffffffffffffffffffffffffff1614610b5b576040517f08c379a00000000000000000000000000000000000000000000000000000000081526004018080602001828103825260208152602001807f5369676e657220646f204e4f54206f776e2074686973205369676e617475726581525060200191505060405180910390fd5b60006002811115610b6857fe5b600860009054906101000a900460ff166002811115610b8357fe5b148015610be3575060001515600960008373ffffffffffffffffffffffffffffffffffffffff1673ffffffffffffffffffffffffffffffffffffffff16815260200190815260200160002060020160009054906101000a900460ff161515145b610c55576040517f08c379a000000000000000000000000000000000000000000000000000000000815260040180806020018281038252601f8152602001807f5468697320446f63756d656e7420697320616c7265616479207369676e65640081525060200191505060405180910390fd5b42600960008373ffffffffffffffffffffffffffffffffffffffff1673ffffffffffffffffffffffffffffffffffffffff1681526020019081526020016000206000018190555082600960008373ffffffffffffffffffffffffffffffffffffffff1673ffffffffffffffffffffffffffffffffffffffff1681526020019081526020016000206001019080519060200190610cf2929190611162565b506001600960008373ffffffffffffffffffffffffffffffffffffffff1673ffffffffffffffffffffffffffffffffffffffff16815260200190815260200160002060020160006101000a81548160ff02191690831515021790555060078190806001815401808255809150509060018203906000526020600020016000909192909190916101000a81548173ffffffffffffffffffffffffffffffffffffffff021916908373ffffffffffffffffffffffffffffffffffffffff160217905550506002546007805490501415610de8576001600860006101000a81548160ff02191690836002811115610de257fe5b02179055505b8073ffffffffffffffffffffffffffffffffffffffff167f568aebae0f7dc6c96727fb4cdfdf7add45fec43fffd69b3fa71ea0898a27f8cc60405160405180910390a2600191505092915050565b60035481565b6000610e48828461083f565b905060011515600960008373ffffffffffffffffffffffffffffffffffffffff1673ffffffffffffffffffffffffffffffffffffffff16815260200190815260200160002060020160009054906101000a900460ff16151514610f13576040517f08c379a00000000000000000000000000000000000000000000000000000000081526004018080602001828103825260168152602001807f5369676e6174757265206973204e4f542076616c69640000000000000000000081525060200191505060405180910390fd5b6000339050610f21816110ab565b3373ffffffffffffffffffffffffffffffffffffffff167fb6fa8b8bd5eab60f292eca876e3ef90722275b785309d84b1de113ce0b8c4e7460405160405180910390a26002546003541415610fc4576002600860006101000a81548160ff02191690836002811115610f8f57fe5b02179055506005547fc21ce9a820cbf490b61a5852de4a19c50eb9c036c9f40be61ac297184448594e60405160405180910390a25b50505050565b60068054600181600116156101000203166002900480601f0160208091040260200160405190810160405280929190818152602001828054600181600116156101000203166002900480156110605780601f1061103557610100808354040283529160200191611060565b820191906000526020600020905b81548152906001019060200180831161104357829003601f168201915b505050505081565b6000806000604184511461107b57600080fd5b60008060006020870151925060408701519150606087015160001a90508083839550955095505050509193909250565b42600960008373ffffffffffffffffffffffffffffffffffffffff1673ffffffffffffffffffffffffffffffffffffffff168152602001908152602001600020600301819055506000600960008373ffffffffffffffffffffffffffffffffffffffff1673ffffffffffffffffffffffffffffffffffffffff16815260200190815260200160002060020160006101000a81548160ff02191690831515021790555060036000815480929190600101919050555050565b828054600181600116156101000203166002900490600052602060002090601f016020900481019282601f106111a357805160ff19168380011785556111d1565b828001600101855582156111d1579182015b828111156111d05782518255916020019190600101906111b5565b5b5090506111de91906111e2565b5090565b61120491905b808211156112005760008160009055506001016111e8565b5090565b9056fea265627a7a72315820f10774a47936ac9a93af4a7b6252cf4d05162456b43c832dcc90eef4a35a880964736f6c63430005100032",
  "source": "pragma solidity ^0.5.0;\n\n\n// import {ECDSA} from \"@OpenZeppelin/contracts/cryptography/ECDSA.sol\";\n\ncontract NewDocument {\n    /////////////////\n    // Contract State\n    ////////////////\n\n    address public factoryAddress;\n    uint256 public documentTimeStamp;\n    uint256 public numberOfSigners;\n    uint256 public revokeCounter;\n    address public issuer;\n    bytes32 public verifier;\n    string public IPFSaddress;\n    address[] public signersArray;\n\n    enum Status {Pending, Signed, Revoked}\n    Status public status;\n\n    struct Signatures {\n        uint256 signatureTimeStamp;\n        bytes signature;\n        bool isValid;\n        uint256 revokedSig;\n    }\n\n    mapping(address => Signatures) public signers;\n\n    ///////////////\n    // CONSTRUCTOR\n    //////////////\n\n    constructor(\n        bytes32 _Verifier,\n        string memory _IPFSaddress,\n        uint256 _numberOfSigners\n    ) public {\n        issuer = msg.sender;\n        IPFSaddress = _IPFSaddress;\n        documentTimeStamp = block.timestamp;\n        verifier = _Verifier;\n        numberOfSigners = _numberOfSigners;\n        status = Status.Pending;\n    }\n\n    // Document Hash identifier as the key to retrive its information\n\n    event Signed(address indexed _signer);\n    event Revoked(address indexed _signer);\n    event DocRevoked(bytes32 indexed _verifier);\n\n    function signersList() public view returns (address[] memory) {\n        return signersArray;\n    }\n\n    function signDocument(\n        bytes32 _verifier,\n        // uint8 _v,\n        // bytes32 _r,\n        // bytes32 _s,\n        bytes memory _signature\n    ) public returns (bool success) {\n        address validSignature;\n        validSignature = verify(_signature, _verifier); //verify(_verifier, _v, _r, _s);\n        require(\n            validSignature == msg.sender,\n            \"Signer do NOT own this Signature\"\n        );\n        require(\n            status == Status.Pending &&\n                signers[validSignature].isValid == false,\n            \"This Document is already signed\"\n        );\n        signers[validSignature].signatureTimeStamp = block.timestamp;\n        signers[validSignature].signature = _signature;\n        signers[validSignature].isValid = true;\n        signersArray.push(validSignature);\n        if (signersArray.length == numberOfSigners) {\n            status = Status.Signed;\n        }\n        emit Signed(validSignature);\n        return true;\n    }\n\n    // using ECDSA for bytes32;\n\n    // function verify(bytes memory _signature, bytes32 _verifier)\n    //     public\n    //     pure\n    //     returns (address)\n    // {\n    //     address signer = ECDSA.recover(_verifier, _signature);\n    //     if (signer == address(0)) revert(\"signer address == 0\");\n\n    //     return signer;\n    // }\n\n    function verify(bytes memory sig, bytes32 _hash)\n        public\n        pure\n        returns (address)\n    {\n        require(sig.length == 65);\n\n        bytes32 r;\n        bytes32 s;\n        uint8 v;\n\n        (v, r, s) = splitSignature(sig);\n\n        return ecrecover(_hash, v, r, s);\n    }\n\n    function splitSignature(bytes memory sig)\n        internal\n        pure\n        returns (uint8, bytes32, bytes32)\n    {\n        require(sig.length == 65);\n        bytes32 r;\n        bytes32 s;\n        uint8 v;\n\n        assembly {\n            // first 32 bytes, after the length prefix\n            r := mload(add(sig, 32))\n            // second 32 bytes\n            s := mload(add(sig, 64))\n            // final byte (first byte of the next 32 bytes)\n            v := byte(0, mload(add(sig, 96)))\n        }\n\n        return (v, r, s);\n    }\n\n    function setNumeberOfSigners(uint8 _number) public {\n        require(msg.sender == issuer, \"only issuer can change\");\n        numberOfSigners = _number;\n    }\n\n    function revokeSignature(bytes32 _verifier, bytes memory _signature)\n        public\n    {\n        address validSignature;\n        validSignature = verify(_signature, _verifier); //(_verifier, _v, _r, _s);\n        require(\n            signers[validSignature].isValid == true,\n            \"Signature is NOT valid\"\n        );\n        address signer = msg.sender;\n        _revoke(signer);\n        emit Revoked(msg.sender);\n        if (revokeCounter == numberOfSigners) {\n            status = Status.Revoked;\n            emit DocRevoked(verifier);\n        }\n    }\n\n    function _revoke(address _signer) internal {\n        signers[_signer].revokedSig = now;\n        signers[_signer].isValid = false;\n        revokeCounter++;\n    }\n}\n",
  "sourcePath": "/Users/eduardopezzi/Documents/Blockchain Course/Dapp2/signIT_project/contracts/newDocument.sol",
  "compiler": {
    "name": "solc",
    "version": "0.5.16+commit.9c3226ce.Emscripten.clang"
  },
  "schemaVersion": "3.0.23",
  "updatedAt": "2020-04-17T20:03:57.914Z",
  "devdoc": {
    "methods": {}
  },
  "userdoc": {
    "methods": {
      "constructor": "///////////"
    }
  }
}