{
  "contractName": "SignitDoc",
  "abi": [
    {
      "anonymous": false,
      "inputs": [
        {
          "indexed": true,
          "internalType": "bytes32",
          "name": "_hash",
          "type": "bytes32"
        }
      ],
      "name": "DocRevoked",
      "type": "event"
    },
    {
      "anonymous": false,
      "inputs": [
        {
          "indexed": true,
          "internalType": "address",
          "name": "_signer",
          "type": "address"
        },
        {
          "indexed": true,
          "internalType": "bytes32",
          "name": "_hash",
          "type": "bytes32"
        }
      ],
      "name": "Revoked",
      "type": "event"
    },
    {
      "anonymous": false,
      "inputs": [
        {
          "indexed": true,
          "internalType": "address",
          "name": "_signer",
          "type": "address"
        },
        {
          "indexed": true,
          "internalType": "bytes32",
          "name": "_hash",
          "type": "bytes32"
        }
      ],
      "name": "Signed",
      "type": "event"
    },
    {
      "constant": true,
      "inputs": [
        {
          "internalType": "bytes32",
          "name": "",
          "type": "bytes32"
        }
      ],
      "name": "Documents",
      "outputs": [
        {
          "internalType": "bool",
          "name": "isValid",
          "type": "bool"
        },
        {
          "internalType": "uint256",
          "name": "documentTimeStamp",
          "type": "uint256"
        },
        {
          "internalType": "uint16",
          "name": "numberOfSigners",
          "type": "uint16"
        },
        {
          "internalType": "uint256",
          "name": "revokeCounter",
          "type": "uint256"
        },
        {
          "internalType": "address",
          "name": "issuer",
          "type": "address"
        },
        {
          "internalType": "enum SignitDoc.Status",
          "name": "status",
          "type": "uint8"
        }
      ],
      "payable": false,
      "stateMutability": "view",
      "type": "function"
    },
    {
      "constant": true,
      "inputs": [
        {
          "internalType": "bytes32",
          "name": "",
          "type": "bytes32"
        },
        {
          "internalType": "address",
          "name": "",
          "type": "address"
        }
      ],
      "name": "Signers",
      "outputs": [
        {
          "internalType": "uint256",
          "name": "signatureTimeStamp",
          "type": "uint256"
        },
        {
          "internalType": "bytes",
          "name": "signature",
          "type": "bytes"
        },
        {
          "internalType": "bool",
          "name": "isValid",
          "type": "bool"
        },
        {
          "internalType": "uint256",
          "name": "revokedSig",
          "type": "uint256"
        }
      ],
      "payable": false,
      "stateMutability": "view",
      "type": "function"
    },
    {
      "constant": false,
      "inputs": [
        {
          "internalType": "bytes32",
          "name": "_hash",
          "type": "bytes32"
        },
        {
          "internalType": "uint16",
          "name": "_numberOfSigners",
          "type": "uint16"
        }
      ],
      "name": "newContract",
      "outputs": [
        {
          "internalType": "bool",
          "name": "success",
          "type": "bool"
        }
      ],
      "payable": false,
      "stateMutability": "nonpayable",
      "type": "function"
    },
    {
      "constant": true,
      "inputs": [
        {
          "internalType": "bytes32",
          "name": "_hash",
          "type": "bytes32"
        }
      ],
      "name": "signersList",
      "outputs": [
        {
          "internalType": "address[]",
          "name": "",
          "type": "address[]"
        }
      ],
      "payable": false,
      "stateMutability": "view",
      "type": "function"
    },
    {
      "constant": false,
      "inputs": [
        {
          "internalType": "bytes32",
          "name": "_hash",
          "type": "bytes32"
        },
        {
          "internalType": "bytes",
          "name": "_signature",
          "type": "bytes"
        }
      ],
      "name": "signDocument",
      "outputs": [
        {
          "internalType": "bool",
          "name": "success",
          "type": "bool"
        }
      ],
      "payable": false,
      "stateMutability": "nonpayable",
      "type": "function"
    },
    {
      "constant": true,
      "inputs": [
        {
          "internalType": "bytes",
          "name": "sig",
          "type": "bytes"
        },
        {
          "internalType": "bytes32",
          "name": "_verifier",
          "type": "bytes32"
        }
      ],
      "name": "verify",
      "outputs": [
        {
          "internalType": "address",
          "name": "",
          "type": "address"
        }
      ],
      "payable": false,
      "stateMutability": "pure",
      "type": "function"
    },
    {
      "constant": false,
      "inputs": [
        {
          "internalType": "uint8",
          "name": "_number",
          "type": "uint8"
        },
        {
          "internalType": "bytes32",
          "name": "_hash",
          "type": "bytes32"
        }
      ],
      "name": "setNumeberOfSigners",
      "outputs": [],
      "payable": false,
      "stateMutability": "nonpayable",
      "type": "function"
    },
    {
      "constant": false,
      "inputs": [
        {
          "internalType": "bytes32",
          "name": "_hash",
          "type": "bytes32"
        },
        {
          "internalType": "bytes",
          "name": "_signature",
          "type": "bytes"
        }
      ],
      "name": "revokeSignature",
      "outputs": [],
      "payable": false,
      "stateMutability": "nonpayable",
      "type": "function"
    }
  ],
  "bytecode": "0x608060405234801561001057600080fd5b5061135d806100206000396000f3fe608060405234801561001057600080fd5b50600436106100885760003560e01c8063a4c96e751161005b578063a4c96e75146102a4578063b16ec5cd14610381578063ce4932411461042c578063f4ea4644146104f157610088565b80633627e5801461008d57806353d1e5c4146100e15780636b4063411461011c5780638cc0689114610221575b600080fd5b6100c7600480360360408110156100a357600080fd5b8101908080359060200190929190803561ffff1690602001909291905050506105d1565b604051808215151515815260200191505060405180910390f35b61011a600480360360408110156100f757600080fd5b81019080803560ff16906020019092919080359060200190929190505050610777565b005b6101df6004803603604081101561013257600080fd5b810190808035906020019064010000000081111561014f57600080fd5b82018360208201111561016157600080fd5b8035906020019184600183028401116401000000008311171561018357600080fd5b91908080601f016020809104026020016040519081016040528093929190818152602001838380828437600081840152601f19601f82011690508083019250505050505050919291929080359060200190929190505050610884565b604051808273ffffffffffffffffffffffffffffffffffffffff1673ffffffffffffffffffffffffffffffffffffffff16815260200191505060405180910390f35b61024d6004803603602081101561023757600080fd5b8101908080359060200190929190505050610920565b6040518080602001828103825283818151815260200191508051906020019060200280838360005b83811015610290578082015181840152602081019050610275565b505050509050019250505060405180910390f35b610367600480360360408110156102ba57600080fd5b8101908080359060200190929190803590602001906401000000008111156102e157600080fd5b8201836020820111156102f357600080fd5b8035906020019184600183028401116401000000008311171561031557600080fd5b91908080601f016020809104026020016040519081016040528093929190818152602001838380828437600081840152601f19601f8201169050808301925050505050505091929192905050506109c3565b604051808215151515815260200191505060405180910390f35b6103ad6004803603602081101561039757600080fd5b8101908080359060200190929190505050610e03565b60405180871515151581526020018681526020018561ffff1661ffff1681526020018481526020018373ffffffffffffffffffffffffffffffffffffffff1673ffffffffffffffffffffffffffffffffffffffff16815260200182600281111561041357fe5b60ff168152602001965050505050505060405180910390f35b6104ef6004803603604081101561044257600080fd5b81019080803590602001909291908035906020019064010000000081111561046957600080fd5b82018360208201111561047b57600080fd5b8035906020019184600183028401116401000000008311171561049d57600080fd5b91908080601f016020809104026020016040519081016040528093929190818152602001838380828437600081840152601f19601f820116905080830192505050505050509192919290505050610e87565b005b61053d6004803603604081101561050757600080fd5b8101908080359060200190929190803573ffffffffffffffffffffffffffffffffffffffff169060200190929190505050611071565b604051808581526020018060200184151515158152602001838152602001828103825285818151815260200191508051906020019080838360005b83811015610593578082015181840152602081019050610578565b50505050905090810190601f1680156105c05780820380516001836020036101000a031916815260200191505b509550505050505060405180910390f35b600080151560008085815260200190815260200160002060000160009054906101000a900460ff1615151461066e576040517f08c379a00000000000000000000000000000000000000000000000000000000081526004018080602001828103825260188152602001807f446f63756d656e746520616c726561647920657869737473000000000000000081525060200191505060405180910390fd5b3360008085815260200190815260200160002060040160006101000a81548173ffffffffffffffffffffffffffffffffffffffff021916908373ffffffffffffffffffffffffffffffffffffffff16021790555042600080858152602001908152602001600020600101819055508160008085815260200190815260200160002060020160006101000a81548161ffff021916908361ffff160217905550600080600085815260200190815260200160002060060160006101000a81548160ff0219169083600281111561073e57fe5b0217905550600160008085815260200190815260200160002060000160006101000a81548160ff02191690831515021790555092915050565b60008082815260200190815260200160002060040160009054906101000a900473ffffffffffffffffffffffffffffffffffffffff1673ffffffffffffffffffffffffffffffffffffffff163373ffffffffffffffffffffffffffffffffffffffff161461084d576040517f08c379a00000000000000000000000000000000000000000000000000000000081526004018080602001828103825260168152602001807f6f6e6c79206973737565722063616e206368616e67650000000000000000000081525060200191505060405180910390fd5b8160ff1660008083815260200190815260200160002060020160006101000a81548161ffff021916908361ffff1602179055505050565b6000604183511461089457600080fd5b60008060006108a286611153565b80945081955082935050505060018582858560405160008152602001604052604051808581526020018460ff1660ff1681526020018381526020018281526020019450505050506020604051602081039080840390855afa15801561090b573d6000803e3d6000fd5b50505060206040510351935050505092915050565b60606000808381526020019081526020016000206005018054806020026020016040519081016040528092919081815260200182805480156109b757602002820191906000526020600020905b8160009054906101000a900473ffffffffffffffffffffffffffffffffffffffff1673ffffffffffffffffffffffffffffffffffffffff168152602001906001019080831161096d575b50505050509050919050565b6000806109d08385610884565b90503373ffffffffffffffffffffffffffffffffffffffff168173ffffffffffffffffffffffffffffffffffffffff1614610a73576040517f08c379a00000000000000000000000000000000000000000000000000000000081526004018080602001828103825260208152602001807f5369676e657220646f204e4f54206f776e2074686973205369676e617475726581525060200191505060405180910390fd5b60006002811115610a8057fe5b60008086815260200190815260200160002060060160009054906101000a900460ff166002811115610aae57fe5b148015610b1f5750600015156001600086815260200190815260200160002060008373ffffffffffffffffffffffffffffffffffffffff1673ffffffffffffffffffffffffffffffffffffffff16815260200190815260200160002060020160009054906101000a900460ff161515145b610b91576040517f08c379a000000000000000000000000000000000000000000000000000000000815260040180806020018281038252601f8152602001807f5468697320446f63756d656e7420697320616c7265616479207369676e65640081525060200191505060405180910390fd5b426001600086815260200190815260200160002060008373ffffffffffffffffffffffffffffffffffffffff1673ffffffffffffffffffffffffffffffffffffffff16815260200190815260200160002060000181905550826001600086815260200190815260200160002060008373ffffffffffffffffffffffffffffffffffffffff1673ffffffffffffffffffffffffffffffffffffffff1681526020019081526020016000206001019080519060200190610c50929190611283565b50600180600086815260200190815260200160002060008373ffffffffffffffffffffffffffffffffffffffff1673ffffffffffffffffffffffffffffffffffffffff16815260200190815260200160002060020160006101000a81548160ff0219169083151502179055506000808581526020019081526020016000206005018190806001815401808255809150509060018203906000526020600020016000909192909190916101000a81548173ffffffffffffffffffffffffffffffffffffffff021916908373ffffffffffffffffffffffffffffffffffffffff1602179055505060008085815260200190815260200160002060020160009054906101000a900461ffff1661ffff16600080868152602001908152602001600020600501805490501415610db457600160008086815260200190815260200160002060060160006101000a81548160ff02191690836002811115610dae57fe5b02179055505b838173ffffffffffffffffffffffffffffffffffffffff167f6ce43e3def6c459ff915b7e85f0988330a741ef8b79e90dee95a8a976918672a60405160405180910390a3600191505092915050565b60006020528060005260406000206000915090508060000160009054906101000a900460ff16908060010154908060020160009054906101000a900461ffff16908060030154908060040160009054906101000a900473ffffffffffffffffffffffffffffffffffffffff16908060060160009054906101000a900460ff16905086565b6000610e938284610884565b9050600115156001600085815260200190815260200160002060008373ffffffffffffffffffffffffffffffffffffffff1673ffffffffffffffffffffffffffffffffffffffff16815260200190815260200160002060020160009054906101000a900460ff16151514610f6f576040517f08c379a00000000000000000000000000000000000000000000000000000000081526004018080602001828103825260168152602001807f5369676e6174757265206973204e4f542076616c69640000000000000000000081525060200191505060405180910390fd5b6000339050610f7e8185611196565b838173ffffffffffffffffffffffffffffffffffffffff167f6e70be4be1a4aebd688b5523bd8b6278acac3963d71ebf2bd5ea50757047664b60405160405180910390a360008085815260200190815260200160002060020160009054906101000a900461ffff1661ffff1660008086815260200190815260200160002060030154141561106b57600260008086815260200190815260200160002060060160006101000a81548160ff0219169083600281111561103857fe5b0217905550837fc21ce9a820cbf490b61a5852de4a19c50eb9c036c9f40be61ac297184448594e60405160405180910390a25b50505050565b600160205281600052604060002060205280600052604060002060009150915050806000015490806001018054600181600116156101000203166002900480601f0160208091040260200160405190810160405280929190818152602001828054600181600116156101000203166002900480156111305780601f1061110557610100808354040283529160200191611130565b820191906000526020600020905b81548152906001019060200180831161111357829003601f168201915b5050505050908060020160009054906101000a900460ff16908060030154905084565b6000806000604184511461116657600080fd5b60008060006020870151925060408701519150606087015160001a90508083839550955095505050509193909250565b426001600083815260200190815260200160002060008473ffffffffffffffffffffffffffffffffffffffff1673ffffffffffffffffffffffffffffffffffffffff1681526020019081526020016000206003018190555060006001600083815260200190815260200160002060008473ffffffffffffffffffffffffffffffffffffffff1673ffffffffffffffffffffffffffffffffffffffff16815260200190815260200160002060020160006101000a81548160ff021916908315150217905550600080828152602001908152602001600020600301600081548092919060010191905055505050565b828054600181600116156101000203166002900490600052602060002090601f016020900481019282601f106112c457805160ff19168380011785556112f2565b828001600101855582156112f2579182015b828111156112f15782518255916020019190600101906112d6565b5b5090506112ff9190611303565b5090565b61132591905b80821115611321576000816000905550600101611309565b5090565b9056fea265627a7a72315820663e47e8eac03407b4e0c797478ebd76f0a29269a0426d47c1887d34abb8b7e764736f6c63430005100032",
  "source": "pragma solidity ^0.5.16;\n\n\n// import {ECDSA} from \"@OpenZeppelin/contracts/cryptography/ECDSA.sol\";\n\ncontract SignitDoc {\n    /////////////////\n    // Contract State\n    ////////////////\n\n    mapping(bytes32 => Document) public Documents;\n    mapping(bytes32 => mapping(address => Signature)) public Signers;\n    enum Status {Pending, Signed, Revoked}\n\n    struct Document {\n        bool isValid;\n        uint256 documentTimeStamp;\n        uint16 numberOfSigners;\n        uint256 revokeCounter;\n        address issuer;\n        address[] signersArray;\n        Status status;\n    }\n\n    struct Signature {\n        uint256 signatureTimeStamp;\n        bytes signature;\n        bool isValid;\n        uint256 revokedSig;\n    }\n\n    // Document Hash identifier as the key to retrive its information\n\n    event Signed(address indexed _signer, bytes32 indexed _hash);\n    event Revoked(address indexed _signer, bytes32 indexed _hash);\n    event DocRevoked(bytes32 indexed _hash);\n\n    function newContract(bytes32 _hash, uint16 _numberOfSigners)\n        public\n        returns (bool success)\n    {\n        require(Documents[_hash].isValid == false, \"Documente already exists\");\n        Documents[_hash].issuer = msg.sender;\n        Documents[_hash].documentTimeStamp = block.timestamp;\n        Documents[_hash].numberOfSigners = _numberOfSigners;\n        Documents[_hash].status = Status.Pending;\n        Documents[_hash].isValid = true;\n    }\n\n    function signersList(bytes32 _hash) public view returns (address[] memory) {\n        return Documents[_hash].signersArray;\n    }\n\n    function signDocument(\n        bytes32 _hash,\n        // uint8 _v,\n        // bytes32 _r,\n        // bytes32 _s,\n        bytes memory _signature\n    ) public returns (bool success) {\n        address validSignature;\n        validSignature = verify(_signature, _hash);\n        require(\n            validSignature == msg.sender,\n            \"Signer do NOT own this Signature\"\n        );\n        require(\n            Documents[_hash].status == Status.Pending &&\n                Signers[_hash][validSignature].isValid == false,\n            \"This Document is already signed\"\n        );\n        Signers[_hash][validSignature].signatureTimeStamp = block.timestamp;\n        Signers[_hash][validSignature].signature = _signature;\n        Signers[_hash][validSignature].isValid = true;\n        Documents[_hash].signersArray.push(validSignature);\n        if (\n            Documents[_hash].signersArray.length ==\n            Documents[_hash].numberOfSigners\n        ) {\n            Documents[_hash].status = Status.Signed;\n        }\n        emit Signed(validSignature, _hash);\n        return true;\n    }\n\n    // using ECDSA for bytes32;\n\n    // function verify(bytes memory _signature, bytes32 _verifier)\n    //     public\n    //     pure\n    //     returns (address)\n    // {\n    //     address signer = ECDSA.recover(_verifier, _signature);\n    //     if (signer == address(0)) revert(\"signer address == 0\");\n\n    //     return signer;\n    // }\n\n    function verify(bytes memory sig, bytes32 _verifier)\n        public\n        pure\n        returns (address)\n    {\n        require(sig.length == 65);\n\n        bytes32 r;\n        bytes32 s;\n        uint8 v;\n\n        (v, r, s) = splitSignature(sig);\n\n        return ecrecover(_verifier, v, r, s);\n    }\n\n    function splitSignature(bytes memory sig)\n        internal\n        pure\n        returns (uint8, bytes32, bytes32)\n    {\n        require(sig.length == 65);\n        bytes32 r;\n        bytes32 s;\n        uint8 v;\n\n        assembly {\n            // first 32 bytes, after the length prefix\n            r := mload(add(sig, 32))\n            // second 32 bytes\n            s := mload(add(sig, 64))\n            // final byte (first byte of the next 32 bytes)\n            v := byte(0, mload(add(sig, 96)))\n        }\n\n        return (v, r, s);\n    }\n\n    function setNumeberOfSigners(uint8 _number, bytes32 _hash) public {\n        require(\n            msg.sender == Documents[_hash].issuer,\n            \"only issuer can change\"\n        );\n        Documents[_hash].numberOfSigners = _number;\n    }\n\n    function revokeSignature(bytes32 _hash, bytes memory _signature) public {\n        address validSignature;\n        validSignature = verify(_signature, _hash); //(_verifier, _v, _r, _s);\n        require(\n            Signers[_hash][validSignature].isValid == true,\n            \"Signature is NOT valid\"\n        );\n        address signer = msg.sender;\n        _revoke(signer, _hash);\n        emit Revoked(signer, _hash);\n        if (\n            Documents[_hash].revokeCounter == Documents[_hash].numberOfSigners\n        ) {\n            Documents[_hash].status = Status.Revoked;\n            emit DocRevoked(_hash);\n        }\n    }\n\n    function _revoke(address _signer, bytes32 _hash) internal {\n        Signers[_hash][_signer].revokedSig = now;\n        Signers[_hash][_signer].isValid = false;\n        Documents[_hash].revokeCounter++;\n    }\n}\n",
  "sourcePath": "/Users/eduardopezzi/Documents/Blockchain Course/Dapp2/signIT_project/contracts/signitContract.sol",
  "compiler": {
    "name": "solc",
    "version": "0.5.16+commit.9c3226ce.Emscripten.clang"
  },
  "schemaVersion": "3.0.23",
  "updatedAt": "2020-04-17T20:03:57.920Z",
  "devdoc": {
    "methods": {}
  },
  "userdoc": {
    "methods": {}
  }
}