{
  "contractName": "test",
  "abi": [
    {
      "constant": false,
      "inputs": [
        {
          "internalType": "uint256",
          "name": "_amount",
          "type": "uint256"
        }
      ],
      "name": "testTransfer",
      "outputs": [],
      "payable": true,
      "stateMutability": "payable",
      "type": "function"
    },
    {
      "constant": true,
      "inputs": [
        {
          "internalType": "bytes32",
          "name": "_message",
          "type": "bytes32"
        },
        {
          "internalType": "uint8",
          "name": "_v",
          "type": "uint8"
        },
        {
          "internalType": "bytes32",
          "name": "_r",
          "type": "bytes32"
        },
        {
          "internalType": "bytes32",
          "name": "_s",
          "type": "bytes32"
        }
      ],
      "name": "verify",
      "outputs": [
        {
          "internalType": "address",
          "name": "",
          "type": "address"
        }
      ],
      "payable": false,
      "stateMutability": "pure",
      "type": "function"
    }
  ],
  "bytecode": "0x608060405234801561001057600080fd5b506101ef806100206000396000f3fe6080604052600436106100295760003560e01c8063040821fc1461002e578063f1835db71461005c575b600080fd5b61005a6004803603602081101561004457600080fd5b81019080803590602001909291905050506100f8565b005b34801561006857600080fd5b506100b66004803603608081101561007f57600080fd5b8101908080359060200190929190803560ff1690602001909291908035906020019092919080359060200190929190505050610142565b604051808273ffffffffffffffffffffffffffffffffffffffff1673ffffffffffffffffffffffffffffffffffffffff16815260200191505060405180910390f35b3373ffffffffffffffffffffffffffffffffffffffff166108fc829081150290604051600060405180830381858888f1935050505015801561013e573d6000803e3d6000fd5b5050565b60008060018686868660405160008152602001604052604051808581526020018460ff1660ff1681526020018381526020018281526020019450505050506020604051602081039080840390855afa1580156101a2573d6000803e3d6000fd5b5050506020604051035190508091505094935050505056fea265627a7a723158208f7117e319affe92bc6d7b79f45ef87d0b0223cc575894cc11971ba1dfc541f664736f6c63430005100032",
  "source": "pragma solidity ^0.5.0;\n\n\ncontract test {\n    function testTransfer(uint256 _amount) public payable {\n        msg.sender.transfer(_amount);\n    }\n\n    function verify(bytes32 _message, uint8 _v, bytes32 _r, bytes32 _s)\n        public\n        pure\n        returns (address)\n    {\n        address signer = ecrecover(_message, _v, _r, _s);\n        return signer;\n    }\n}\n",
  "sourcePath": "/Users/eduardopezzi/Documents/Blockchain Course/Dapp2/signIT_project/contracts/Ecrecover.sol",
  "compiler": {
    "name": "solc",
    "version": "0.5.16+commit.9c3226ce.Emscripten.clang"
  },
  "schemaVersion": "3.0.23",
  "updatedAt": "2020-04-17T20:03:57.913Z",
  "devdoc": {
    "methods": {}
  },
  "userdoc": {
    "methods": {}
  }
}