{
  "contractName": "MediaTimeStamp",
  "abi": [
    {
      "constant": true,
      "inputs": [
        {
          "name": "",
          "type": "uint256"
        }
      ],
      "name": "mediaOwned",
      "outputs": [
        {
          "name": "hashID",
          "type": "uint256"
        },
        {
          "name": "description",
          "type": "string"
        },
        {
          "name": "URL",
          "type": "string"
        },
        {
          "name": "mediaOwner",
          "type": "address"
        },
        {
          "name": "typeOfMedia",
          "type": "string"
        },
        {
          "name": "date",
          "type": "uint256"
        },
        {
          "name": "exist",
          "type": "bool"
        }
      ],
      "payable": false,
      "stateMutability": "view",
      "type": "function"
    },
    {
      "constant": true,
      "inputs": [
        {
          "name": "",
          "type": "uint256"
        }
      ],
      "name": "transferRequest",
      "outputs": [
        {
          "name": "currentOwner",
          "type": "address"
        },
        {
          "name": "currentOwnerAproval",
          "type": "bool"
        },
        {
          "name": "destinataryOwnership",
          "type": "address"
        },
        {
          "name": "reasons",
          "type": "string"
        },
        {
          "name": "hasRequest",
          "type": "bool"
        }
      ],
      "payable": false,
      "stateMutability": "view",
      "type": "function"
    },
    {
      "constant": true,
      "inputs": [],
      "name": "contractOwner",
      "outputs": [
        {
          "name": "",
          "type": "address"
        }
      ],
      "payable": false,
      "stateMutability": "view",
      "type": "function"
    },
    {
      "inputs": [],
      "payable": false,
      "stateMutability": "nonpayable",
      "type": "constructor"
    },
    {
      "anonymous": false,
      "inputs": [
        {
          "indexed": true,
          "name": "_from",
          "type": "address"
        },
        {
          "indexed": true,
          "name": "_to",
          "type": "address"
        },
        {
          "indexed": true,
          "name": "_hash",
          "type": "uint256"
        }
      ],
      "name": "Approval",
      "type": "event"
    },
    {
      "anonymous": false,
      "inputs": [
        {
          "indexed": true,
          "name": "_from",
          "type": "address"
        },
        {
          "indexed": true,
          "name": "_to",
          "type": "address"
        },
        {
          "indexed": true,
          "name": "_hash",
          "type": "uint256"
        },
        {
          "indexed": false,
          "name": "Approver",
          "type": "address"
        }
      ],
      "name": "Transfer",
      "type": "event"
    },
    {
      "anonymous": false,
      "inputs": [
        {
          "indexed": true,
          "name": "_requester",
          "type": "address"
        },
        {
          "indexed": true,
          "name": "_hash",
          "type": "uint256"
        },
        {
          "indexed": true,
          "name": "_reasons",
          "type": "string"
        }
      ],
      "name": "Request",
      "type": "event"
    },
    {
      "constant": false,
      "inputs": [
        {
          "name": "_hash",
          "type": "uint256"
        },
        {
          "name": "_description",
          "type": "string"
        },
        {
          "name": "_URL",
          "type": "string"
        },
        {
          "name": "_mediaType",
          "type": "string"
        }
      ],
      "name": "createOwnership",
      "outputs": [
        {
          "name": "success",
          "type": "bool"
        }
      ],
      "payable": false,
      "stateMutability": "nonpayable",
      "type": "function"
    },
    {
      "constant": true,
      "inputs": [],
      "name": "myMedias",
      "outputs": [
        {
          "name": "",
          "type": "uint256[]"
        }
      ],
      "payable": false,
      "stateMutability": "view",
      "type": "function"
    },
    {
      "constant": false,
      "inputs": [
        {
          "name": "_hash",
          "type": "uint256"
        },
        {
          "name": "_reasons",
          "type": "string"
        }
      ],
      "name": "requestOwnership",
      "outputs": [],
      "payable": false,
      "stateMutability": "nonpayable",
      "type": "function"
    },
    {
      "constant": false,
      "inputs": [
        {
          "name": "_hash",
          "type": "uint256"
        }
      ],
      "name": "ownerApproval",
      "outputs": [],
      "payable": false,
      "stateMutability": "nonpayable",
      "type": "function"
    },
    {
      "constant": false,
      "inputs": [
        {
          "name": "_hash",
          "type": "uint256"
        }
      ],
      "name": "transferOwnership",
      "outputs": [],
      "payable": false,
      "stateMutability": "nonpayable",
      "type": "function"
    }
  ],
  "bytecode": "0x608060405234801561001057600080fd5b50336000806101000a81548173ffffffffffffffffffffffffffffffffffffffff021916908373ffffffffffffffffffffffffffffffffffffffff160217905550611a46806100606000396000f3fe608060405234801561001057600080fd5b50600436106100885760003560e01c806365804db21161005b57806365804db2146105b4578063a748b1bf14610679578063ce606ee0146106d8578063d23e84891461072257610088565b8063179a5a291461008d57806323250843146102985780632850e0a7146104635780636264136e14610491575b600080fd5b61027e600480360360808110156100a357600080fd5b8101908080359060200190929190803590602001906401000000008111156100ca57600080fd5b8201836020820111156100dc57600080fd5b803590602001918460018302840111640100000000831117156100fe57600080fd5b91908080601f016020809104026020016040519081016040528093929190818152602001838380828437600081840152601f19601f8201169050808301925050505050505091929192908035906020019064010000000081111561016157600080fd5b82018360208201111561017357600080fd5b8035906020019184600183028401116401000000008311171561019557600080fd5b91908080601f016020809104026020016040519081016040528093929190818152602001838380828437600081840152601f19601f820116905080830192505050505050509192919290803590602001906401000000008111156101f857600080fd5b82018360208201111561020a57600080fd5b8035906020019184600183028401116401000000008311171561022c57600080fd5b91908080601f016020809104026020016040519081016040528093929190818152602001838380828437600081840152601f19601f820116905080830192505050505050509192919290505050610750565b604051808215151515815260200191505060405180910390f35b6102c4600480360360208110156102ae57600080fd5b81019080803590602001909291905050506109a0565b6040518088815260200180602001806020018773ffffffffffffffffffffffffffffffffffffffff1673ffffffffffffffffffffffffffffffffffffffff168152602001806020018681526020018515151515815260200184810384528a818151815260200191508051906020019080838360005b83811015610354578082015181840152602081019050610339565b50505050905090810190601f1680156103815780820380516001836020036101000a031916815260200191505b50848103835289818151815260200191508051906020019080838360005b838110156103ba57808201518184015260208101905061039f565b50505050905090810190601f1680156103e75780820380516001836020036101000a031916815260200191505b50848103825287818151815260200191508051906020019080838360005b83811015610420578082015181840152602081019050610405565b50505050905090810190601f16801561044d5780820380516001836020036101000a031916815260200191505b509a505050505050505050505060405180910390f35b61048f6004803603602081101561047957600080fd5b8101908080359060200190929190505050610bd7565b005b6104bd600480360360208110156104a757600080fd5b8101908080359060200190929190505050610d71565b604051808673ffffffffffffffffffffffffffffffffffffffff1673ffffffffffffffffffffffffffffffffffffffff168152602001851515151581526020018473ffffffffffffffffffffffffffffffffffffffff1673ffffffffffffffffffffffffffffffffffffffff1681526020018060200183151515158152602001828103825284818151815260200191508051906020019080838360005b8381101561057557808201518184015260208101905061055a565b50505050905090810190601f1680156105a25780820380516001836020036101000a031916815260200191505b50965050505050505060405180910390f35b610677600480360360408110156105ca57600080fd5b8101908080359060200190929190803590602001906401000000008111156105f157600080fd5b82018360208201111561060357600080fd5b8035906020019184600183028401116401000000008311171561062557600080fd5b91908080601f016020809104026020016040519081016040528093929190818152602001838380828437600081840152601f19601f820116905080830192505050505050509192919290505050610e99565b005b6106816112bd565b6040518080602001828103825283818151815260200191508051906020019060200280838360005b838110156106c45780820151818401526020810190506106a9565b505050509050019250505060405180910390f35b6106e0611355565b604051808273ffffffffffffffffffffffffffffffffffffffff1673ffffffffffffffffffffffffffffffffffffffff16815260200191505060405180910390f35b61074e6004803603602081101561073857600080fd5b810190808035906020019092919050505061137a565b005b60008015156001600087815260200190815260200160002060060160009054906101000a900460ff161515146107ee576040517f08c379a00000000000000000000000000000000000000000000000000000000081526004018080602001828103825260188152602001807f74686973204841534820616c726561647920657869737473000000000000000081525060200191505060405180910390fd5b8460016000878152602001908152602001600020600001819055508360016000878152602001908152602001600020600101908051906020019061083392919061194e565b508260016000878152602001908152602001600020600201908051906020019061085e92919061194e565b50336001600087815260200190815260200160002060030160006101000a81548173ffffffffffffffffffffffffffffffffffffffff021916908373ffffffffffffffffffffffffffffffffffffffff160217905550816001600087815260200190815260200160002060040190805190602001906108de92919061194e565b50426001600087815260200190815260200160002060050181905550600180600087815260200190815260200160002060060160006101000a81548160ff021916908315150217905550600260003373ffffffffffffffffffffffffffffffffffffffff1673ffffffffffffffffffffffffffffffffffffffff16815260200190815260200160002060000185908060018154018082558091505090600182039060005260206000200160009091929091909150555060019050949350505050565b6001602052806000526040600020600091509050806000015490806001018054600181600116156101000203166002900480601f016020809104026020016040519081016040528092919081815260200182805460018160011615610100020316600290048015610a525780601f10610a2757610100808354040283529160200191610a52565b820191906000526020600020905b815481529060010190602001808311610a3557829003601f168201915b505050505090806002018054600181600116156101000203166002900480601f016020809104026020016040519081016040528092919081815260200182805460018160011615610100020316600290048015610af05780601f10610ac557610100808354040283529160200191610af0565b820191906000526020600020905b815481529060010190602001808311610ad357829003601f168201915b5050505050908060030160009054906101000a900473ffffffffffffffffffffffffffffffffffffffff1690806004018054600181600116156101000203166002900480601f016020809104026020016040519081016040528092919081815260200182805460018160011615610100020316600290048015610bb45780601f10610b8957610100808354040283529160200191610bb4565b820191906000526020600020905b815481529060010190602001808311610b9757829003601f168201915b5050505050908060050154908060060160009054906101000a900460ff16905087565b3373ffffffffffffffffffffffffffffffffffffffff166001600083815260200190815260200160002060030160009054906101000a900473ffffffffffffffffffffffffffffffffffffffff1673ffffffffffffffffffffffffffffffffffffffff1614610cae576040517f08c379a000000000000000000000000000000000000000000000000000000000815260040180806020018281038252601c8152602001807f6f6e6c79206d65646961206f776e65722063616e20617070726f76650000000081525060200191505060405180910390fd5b60016003600083815260200190815260200160002060000160146101000a81548160ff021916908315150217905550806003600083815260200190815260200160002060010160009054906101000a900473ffffffffffffffffffffffffffffffffffffffff1673ffffffffffffffffffffffffffffffffffffffff163373ffffffffffffffffffffffffffffffffffffffff167f8c5be1e5ebec7d5bd14f71427d1e84f3dd0314c0f7b2291e5b200ac8c7c3b92560405160405180910390a450565b60036020528060005260406000206000915090508060000160009054906101000a900473ffffffffffffffffffffffffffffffffffffffff16908060000160149054906101000a900460ff16908060010160009054906101000a900473ffffffffffffffffffffffffffffffffffffffff1690806002018054600181600116156101000203166002900480601f016020809104026020016040519081016040528092919081815260200182805460018160011615610100020316600290048015610e7c5780601f10610e5157610100808354040283529160200191610e7c565b820191906000526020600020905b815481529060010190602001808311610e5f57829003601f168201915b5050505050908060030160009054906101000a900460ff16905085565b600115156001600084815260200190815260200160002060060160009054906101000a900460ff16151514610f36576040517f08c379a00000000000000000000000000000000000000000000000000000000081526004018080602001828103825260188152602001807f74686973204841534820646f6573204e4f54206578697374000000000000000081525060200191505060405180910390fd5b3373ffffffffffffffffffffffffffffffffffffffff166001600084815260200190815260200160002060030160009054906101000a900473ffffffffffffffffffffffffffffffffffffffff1673ffffffffffffffffffffffffffffffffffffffff16141561100e576040517f08c379a000000000000000000000000000000000000000000000000000000000815260040180806020018281038252601b8152602001807f4d65646961206f776e65722063616e204e4f542072657175657374000000000081525060200191505060405180910390fd5b600015156003600084815260200190815260200160002060030160009054906101000a900460ff161515146110ab576040517f08c379a000000000000000000000000000000000000000000000000000000000815260040180806020018281038252601f8152602001807f74686973204841534820616c726561647920686173206120726571756573740081525060200191505060405180910390fd5b6001600083815260200190815260200160002060030160009054906101000a900473ffffffffffffffffffffffffffffffffffffffff166003600084815260200190815260200160002060000160006101000a81548173ffffffffffffffffffffffffffffffffffffffff021916908373ffffffffffffffffffffffffffffffffffffffff160217905550336003600084815260200190815260200160002060010160006101000a81548173ffffffffffffffffffffffffffffffffffffffff021916908373ffffffffffffffffffffffffffffffffffffffff160217905550806003600084815260200190815260200160002060020190805190602001906111b592919061194e565b5060006003600084815260200190815260200160002060000160146101000a81548160ff02191690831515021790555060016003600084815260200190815260200160002060030160006101000a81548160ff021916908315150217905550806040518082805190602001908083835b602083106112485780518252602082019150602081019050602083039250611225565b6001836020036101000a0380198251168184511680821785525050505050509050019150506040518091039020823373ffffffffffffffffffffffffffffffffffffffff167f74ce2d59dee59c3536243556ea96d5eb0134089a923ee6a3a6560118b72fd36d60405160405180910390a45050565b6060600260003373ffffffffffffffffffffffffffffffffffffffff1673ffffffffffffffffffffffffffffffffffffffff16815260200190815260200160002060000180548060200260200160405190810160405280929190818152602001828054801561134b57602002820191906000526020600020905b815481526020019060010190808311611337575b5050505050905090565b6000809054906101000a900473ffffffffffffffffffffffffffffffffffffffff1681565b6000809054906101000a900473ffffffffffffffffffffffffffffffffffffffff1673ffffffffffffffffffffffffffffffffffffffff163373ffffffffffffffffffffffffffffffffffffffff161461143c576040517f08c379a00000000000000000000000000000000000000000000000000000000081526004018080602001828103825260118152602001807f4f6e6c79204f776e65722041636365737300000000000000000000000000000081525060200191505060405180910390fd5b600115156003600083815260200190815260200160002060030160009054906101000a900460ff161515146114d9576040517f08c379a00000000000000000000000000000000000000000000000000000000081526004018080602001828103825260188152602001807f74686973204841534820686173204e4f2072657175657374000000000000000081525060200191505060405180910390fd5b600115156003600083815260200190815260200160002060000160149054906101000a900460ff16151514611559576040517f08c379a00000000000000000000000000000000000000000000000000000000081526004018080602001828103825260278152602001806119f46027913960400191505060405180910390fd5b60006001600083815260200190815260200160002060030160009054906101000a900473ffffffffffffffffffffffffffffffffffffffff1690506003600083815260200190815260200160002060010160009054906101000a900473ffffffffffffffffffffffffffffffffffffffff166001600084815260200190815260200160002060030160006101000a81548173ffffffffffffffffffffffffffffffffffffffff021916908373ffffffffffffffffffffffffffffffffffffffff160217905550600260006003600085815260200190815260200160002060010160009054906101000a900473ffffffffffffffffffffffffffffffffffffffff1673ffffffffffffffffffffffffffffffffffffffff1673ffffffffffffffffffffffffffffffffffffffff16815260200190815260200160002060000182908060018154018082558091505090600182039060005260206000200160009091929091909150555060008090505b600260008373ffffffffffffffffffffffffffffffffffffffff1673ffffffffffffffffffffffffffffffffffffffff168152602001908152602001600020600001805490508110156118815782600260008473ffffffffffffffffffffffffffffffffffffffff1673ffffffffffffffffffffffffffffffffffffffff168152602001908152602001600020600001828154811061176257fe5b9060005260206000200154141561181657600260008373ffffffffffffffffffffffffffffffffffffffff1673ffffffffffffffffffffffffffffffffffffffff16815260200190815260200160002060000181815481106117c057fe5b9060005260206000200160009055600260008373ffffffffffffffffffffffffffffffffffffffff1673ffffffffffffffffffffffffffffffffffffffff16815260200190815260200160002060000180549050505b60006003600085815260200190815260200160002060030160006101000a81548160ff02191690831515021790555060006003600085815260200190815260200160002060000160146101000a81548160ff02191690831515021790555080806001019150506116c7565b50816001600084815260200190815260200160002060030160009054906101000a900473ffffffffffffffffffffffffffffffffffffffff1673ffffffffffffffffffffffffffffffffffffffff168273ffffffffffffffffffffffffffffffffffffffff167f5f2147fb558c977441fbdfebcf8cd5776606adc8da5ff95566fc2a4137e54d1333604051808273ffffffffffffffffffffffffffffffffffffffff1673ffffffffffffffffffffffffffffffffffffffff16815260200191505060405180910390a45050565b828054600181600116156101000203166002900490600052602060002090601f016020900481019282601f1061198f57805160ff19168380011785556119bd565b828001600101855582156119bd579182015b828111156119bc5782518255916020019190600101906119a1565b5b5090506119ca91906119ce565b5090565b6119f091905b808211156119ec5760008160009055506001016119d4565b5090565b9056fe43757272656e74206f776e657220686173204e4f54206170706f72766564207472616e73666572a165627a7a72305820785d5fad04c86ff670cb60acc529e23d96b719e66cb756f2b223e7f5af291df10029",
  "source": "pragma solidity 0.5.8;\n\ncontract MediaTimeStamp {\n    struct MediaHash {\n        uint256 hashID;\n        string description;\n        string URL;\n        address mediaOwner;\n        string typeOfMedia;\n        uint256 date;\n        bool exist;\n    }\n\n    struct HashList {\n        uint256[] itensID;\n    }\n\n    struct TransferRequest {\n        address currentOwner;\n        bool currentOwnerAproval;\n        address destinataryOwnership;\n        string reasons;\n        bool hasRequest;\n    }\n\n    address public contractOwner;\n\n    mapping(uint256 => MediaHash) public mediaOwned;\n    mapping(address => HashList) mediaOwner;\n    mapping(uint256 => TransferRequest) public transferRequest; // reasons for the transfer request\n\n    event Approval(\n        address indexed _from,\n        address indexed _to,\n        uint256 indexed _hash\n    );\n    event Transfer(\n        address indexed _from,\n        address indexed _to,\n        uint256 indexed _hash,\n        address Approver\n    );\n    event Request(\n        address indexed _requester,\n        uint256 indexed _hash,\n        string indexed _reasons\n    );\n\n    constructor() public {\n        contractOwner = msg.sender;\n    }\n\n    modifier OnlyContractOwner() {\n        require(msg.sender == contractOwner, \"Only Owner Access\");\n        _;\n    }\n\n    modifier OnlyMediaOwner(uint256 _hash) {\n        require(\n            mediaOwned[_hash].mediaOwner == msg.sender,\n            \"only media owner can approve\"\n        );\n        _;\n    }\n\n    function createOwnership(\n        uint256 _hash,\n        string memory _description,\n        string memory _URL,\n        string memory _mediaType\n    ) public returns (bool success) {\n        require(mediaOwned[_hash].exist == false, \"this HASH already exists\");\n\n        mediaOwned[_hash].hashID = _hash;\n        mediaOwned[_hash].description = _description;\n        mediaOwned[_hash].URL = _URL;\n        mediaOwned[_hash].mediaOwner = msg.sender;\n        mediaOwned[_hash].typeOfMedia = _mediaType;\n        mediaOwned[_hash].date = block.timestamp;\n        mediaOwned[_hash].exist = true;\n        mediaOwner[msg.sender].itensID.push(_hash);\n        return true;\n    }\n\n    function myMedias() public view returns (uint256[] memory) {\n        return mediaOwner[msg.sender].itensID;\n    }\n\n    function requestOwnership(uint256 _hash, string memory _reasons) public {\n        require(mediaOwned[_hash].exist == true, \"this HASH does NOT exist\");\n        require(\n            mediaOwned[_hash].mediaOwner != msg.sender,\n            \"Media owner can NOT request\"\n        );\n        require(\n            transferRequest[_hash].hasRequest == false,\n            \"this HASH already has a request\"\n        );\n\n        transferRequest[_hash].currentOwner = mediaOwned[_hash].mediaOwner;\n        transferRequest[_hash].destinataryOwnership = msg.sender;\n        transferRequest[_hash].reasons = _reasons;\n        transferRequest[_hash].currentOwnerAproval = false;\n        transferRequest[_hash].hasRequest = true;\n        emit Request(msg.sender, _hash, _reasons);\n    }\n\n    function ownerApproval(uint256 _hash) public {\n        require(\n            mediaOwned[_hash].mediaOwner == msg.sender,\n            \"only media owner can approve\"\n        );\n\n        transferRequest[_hash].currentOwnerAproval = true;\n        emit Approval(\n            msg.sender,\n            transferRequest[_hash].destinataryOwnership,\n            _hash\n        );\n    }\n\n    function transferOwnership(uint256 _hash) public OnlyContractOwner {\n        require(\n            transferRequest[_hash].hasRequest == true,\n            \"this HASH has NO request\"\n        );\n        require(\n            transferRequest[_hash].currentOwnerAproval == true,\n            \"Current owner has NOT apporved transfer\"\n        );\n\n        address _currentOwner = mediaOwned[_hash].mediaOwner;\n        mediaOwned[_hash].mediaOwner = transferRequest[_hash]\n            .destinataryOwnership;\n        mediaOwner[transferRequest[_hash].destinataryOwnership].itensID.push(\n            _hash\n        );\n        for (uint256 i = 0; i < mediaOwner[_currentOwner].itensID.length; i++) {\n            if (mediaOwner[_currentOwner].itensID[i] == _hash) {\n                delete mediaOwner[_currentOwner].itensID[i];\n                i == mediaOwner[_currentOwner].itensID.length;\n            }\n            transferRequest[_hash].hasRequest = false;\n            transferRequest[_hash].currentOwnerAproval = false;\n        }\n        emit Transfer(\n            _currentOwner,\n            mediaOwned[_hash].mediaOwner,\n            _hash,\n            msg.sender\n        );\n\n    }\n\n}\n",
  "sourcePath": "/Users/eduardopezzi/Documents/Blockchain Course/design_patterns/Media-Time-Stamp-React/truffle/contracts/mediaContract.sol",
  "compiler": {
    "name": "solc",
    "version": "0.5.8+commit.23d335f2.Emscripten.clang"
  },
  "schemaVersion": "3.0.16",
  "updatedAt": "2020-02-06T20:54:00.721Z",
  "devdoc": {
    "methods": {}
  },
  "userdoc": {
    "methods": {}
  }
}