{
  "contractName": "NewDocument",
  "abi": [
    {
      "inputs": [
        {
          "internalType": "uint256",
          "name": "_Verifier",
          "type": "uint256"
        },
        {
          "internalType": "uint256",
          "name": "_signersNumber",
          "type": "uint256"
        }
      ],
      "payable": false,
      "stateMutability": "nonpayable",
      "type": "constructor"
    },
    {
      "anonymous": false,
      "inputs": [
        {
          "indexed": true,
          "internalType": "address",
          "name": "_signer",
          "type": "address"
        }
      ],
      "name": "Revoked",
      "type": "event"
    },
    {
      "anonymous": false,
      "inputs": [
        {
          "indexed": true,
          "internalType": "address",
          "name": "_signer",
          "type": "address"
        }
      ],
      "name": "Signed",
      "type": "event"
    },
    {
      "constant": true,
      "inputs": [],
      "name": "documentTimeStamp",
      "outputs": [
        {
          "internalType": "uint256",
          "name": "",
          "type": "uint256"
        }
      ],
      "payable": false,
      "stateMutability": "view",
      "type": "function"
    },
    {
      "constant": true,
      "inputs": [],
      "name": "factoryAddress",
      "outputs": [
        {
          "internalType": "address",
          "name": "",
          "type": "address"
        }
      ],
      "payable": false,
      "stateMutability": "view",
      "type": "function"
    },
    {
      "constant": true,
      "inputs": [],
      "name": "issuer",
      "outputs": [
        {
          "internalType": "address",
          "name": "",
          "type": "address"
        }
      ],
      "payable": false,
      "stateMutability": "view",
      "type": "function"
    },
    {
      "constant": true,
      "inputs": [
        {
          "internalType": "address",
          "name": "",
          "type": "address"
        }
      ],
      "name": "signers",
      "outputs": [
        {
          "internalType": "uint256",
          "name": "signatureTimeStamp",
          "type": "uint256"
        },
        {
          "internalType": "bytes",
          "name": "signatureTX",
          "type": "bytes"
        },
        {
          "internalType": "bool",
          "name": "isValid",
          "type": "bool"
        }
      ],
      "payable": false,
      "stateMutability": "view",
      "type": "function"
    },
    {
      "constant": true,
      "inputs": [
        {
          "internalType": "uint256",
          "name": "",
          "type": "uint256"
        }
      ],
      "name": "signersArray",
      "outputs": [
        {
          "internalType": "address",
          "name": "",
          "type": "address"
        }
      ],
      "payable": false,
      "stateMutability": "view",
      "type": "function"
    },
    {
      "constant": true,
      "inputs": [],
      "name": "signersNumber",
      "outputs": [
        {
          "internalType": "uint256",
          "name": "",
          "type": "uint256"
        }
      ],
      "payable": false,
      "stateMutability": "view",
      "type": "function"
    },
    {
      "constant": true,
      "inputs": [],
      "name": "status",
      "outputs": [
        {
          "internalType": "enum NewDocument.Status",
          "name": "",
          "type": "uint8"
        }
      ],
      "payable": false,
      "stateMutability": "view",
      "type": "function"
    },
    {
      "constant": true,
      "inputs": [],
      "name": "verifier",
      "outputs": [
        {
          "internalType": "uint256",
          "name": "",
          "type": "uint256"
        }
      ],
      "payable": false,
      "stateMutability": "view",
      "type": "function"
    },
    {
      "constant": false,
      "inputs": [
        {
          "internalType": "bytes",
          "name": "_signature",
          "type": "bytes"
        }
      ],
      "name": "signContract",
      "outputs": [],
      "payable": false,
      "stateMutability": "nonpayable",
      "type": "function"
    },
    {
      "constant": false,
      "inputs": [
        {
          "internalType": "uint8",
          "name": "_number",
          "type": "uint8"
        }
      ],
      "name": "setNumeberOfSigners",
      "outputs": [],
      "payable": false,
      "stateMutability": "nonpayable",
      "type": "function"
    }
  ],
  "bytecode": "0x608060405234801561001057600080fd5b506040516109583803806109588339818101604052604081101561003357600080fd5b81019080805190602001909291908051906020019092919050505033600360006101000a81548173ffffffffffffffffffffffffffffffffffffffff021916908373ffffffffffffffffffffffffffffffffffffffff1602179055504260018190555081600481905550806002819055506000600660006101000a81548160ff021916908360028111156100c357fe5b0217905550505061087f806100d96000396000f3fe608060405234801561001057600080fd5b506004361061009e5760003560e01c806352bb27b01161006657806352bb27b01461017357806356e424281461022e578063736c0d5b1461029c5780637f592db61461036b578063966dae0e1461039c5761009e565b80630c6599b5146100a35780631d143848146100c1578063200d2ed21461010b5780632b7ac3f314610137578063363296a414610155575b600080fd5b6100ab6103e6565b6040518082815260200191505060405180910390f35b6100c96103ec565b604051808273ffffffffffffffffffffffffffffffffffffffff1673ffffffffffffffffffffffffffffffffffffffff16815260200191505060405180910390f35b610113610412565b6040518082600281111561012357fe5b60ff16815260200191505060405180910390f35b61013f610425565b6040518082815260200191505060405180910390f35b61015d61042b565b6040518082815260200191505060405180910390f35b61022c6004803603602081101561018957600080fd5b81019080803590602001906401000000008111156101a657600080fd5b8201836020820111156101b857600080fd5b803590602001918460018302840111640100000000831117156101da57600080fd5b91908080601f016020809104026020016040519081016040528093929190818152602001838380828437600081840152601f19601f820116905080830192505050505050509192919290505050610431565b005b61025a6004803603602081101561024457600080fd5b8101908080359060200190929190505050610668565b604051808273ffffffffffffffffffffffffffffffffffffffff1673ffffffffffffffffffffffffffffffffffffffff16815260200191505060405180910390f35b6102de600480360360208110156102b257600080fd5b81019080803573ffffffffffffffffffffffffffffffffffffffff1690602001909291905050506106a4565b604051808481526020018060200183151515158152602001828103825284818151815260200191508051906020019080838360005b8381101561032e578082015181840152602081019050610313565b50505050905090810190601f16801561035b5780820380516001836020036101000a031916815260200191505b5094505050505060405180910390f35b61039a6004803603602081101561038157600080fd5b81019080803560ff169060200190929190505050610773565b005b6103a4610780565b604051808273ffffffffffffffffffffffffffffffffffffffff1673ffffffffffffffffffffffffffffffffffffffff16815260200191505060405180910390f35b60025481565b600360009054906101000a900473ffffffffffffffffffffffffffffffffffffffff1681565b600660009054906101000a900460ff1681565b60045481565b60015481565b60001515600760003373ffffffffffffffffffffffffffffffffffffffff1673ffffffffffffffffffffffffffffffffffffffff16815260200190815260200160002060020160009054906101000a900460ff161515146104fa576040517f08c379a000000000000000000000000000000000000000000000000000000000815260040180806020018281038252601b8152602001807f54686973206163636f756e7420616c7265616479207369676e6564000000000081525060200191505060405180910390fd5b42600760003373ffffffffffffffffffffffffffffffffffffffff1673ffffffffffffffffffffffffffffffffffffffff1681526020019081526020016000206000018190555080600760003373ffffffffffffffffffffffffffffffffffffffff1673ffffffffffffffffffffffffffffffffffffffff16815260200190815260200160002060010190805190602001906105979291906107a5565b5060053390806001815401808255809150509060018203906000526020600020016000909192909190916101000a81548173ffffffffffffffffffffffffffffffffffffffff021916908373ffffffffffffffffffffffffffffffffffffffff160217905550506001600660006101000a81548160ff0219169083600281111561061d57fe5b02179055503373ffffffffffffffffffffffffffffffffffffffff167f568aebae0f7dc6c96727fb4cdfdf7add45fec43fffd69b3fa71ea0898a27f8cc60405160405180910390a250565b6005818154811061067557fe5b906000526020600020016000915054906101000a900473ffffffffffffffffffffffffffffffffffffffff1681565b6007602052806000526040600020600091509050806000015490806001018054600181600116156101000203166002900480601f0160208091040260200160405190810160405280929190818152602001828054600181600116156101000203166002900480156107565780601f1061072b57610100808354040283529160200191610756565b820191906000526020600020905b81548152906001019060200180831161073957829003601f168201915b5050505050908060020160009054906101000a900460ff16905083565b8060ff1660028190555050565b6000809054906101000a900473ffffffffffffffffffffffffffffffffffffffff1681565b828054600181600116156101000203166002900490600052602060002090601f016020900481019282601f106107e657805160ff1916838001178555610814565b82800160010185558215610814579182015b828111156108135782518255916020019190600101906107f8565b5b5090506108219190610825565b5090565b61084791905b8082111561084357600081600090555060010161082b565b5090565b9056fea265627a7a72315820844bbe82b2dae05a262b413a6fa687e6c0cc6c805f4d9610fc459783f679496664736f6c63430005100032",
  "source": "pragma solidity ^0.5.0;\n\n\ncontract NewDocument {\n    address public factoryAddress;\n    uint256 public documentTimeStamp;\n    uint256 public signersNumber;\n    address public issuer;\n    uint256 public verifier;\n    address[] public signersArray;\n\n    enum Status {Pending, Signed, Revoked}\n    Status public status;\n\n    struct Signatures {\n        uint256 signatureTimeStamp;\n        bytes signatureTX;\n        bool isValid;\n    }\n\n    mapping(address => Signatures) public signers;\n\n    ///////////////\n    // CONSTRUCTOR\n    //////////////\n    constructor(uint256 _Verifier, uint256 _signersNumber) public {\n        issuer = msg.sender;\n        documentTimeStamp = block.timestamp;\n        verifier = _Verifier;\n        signersNumber = _signersNumber;\n        status = Status.Pending;\n    }\n\n    // Document Hash identifier as the key to retrive its information\n\n    event Signed(address indexed _signer);\n    event Revoked(address indexed _signer);\n\n    function signContract(bytes memory _signature) public {\n        require(\n            signers[msg.sender].isValid == false,\n            \"This account already signed\"\n        );\n        signers[msg.sender].signatureTimeStamp = now;\n        signers[msg.sender].signatureTX = _signature;\n        signersArray.push(msg.sender);\n        status = Status.Signed;\n\n        emit Signed(msg.sender);\n    }\n\n    function verify(bytes32 _message, uint8 _v, bytes32 _r, bytes32 _s)\n        internal\n        pure\n        returns (address)\n    {\n        address signer = ecrecover(_message, _v, _r, _s);\n        return signer;\n    }\n\n    function setNumeberOfSigners(uint8 _number) public {\n        signersNumber = _number;\n    }\n}\n",
  "sourcePath": "/Users/eduardopezzi/Documents/Blockchain Course/Dapp2/signit/contracts/newDocument.sol",
  "compiler": {
    "name": "solc",
    "version": "0.5.16+commit.9c3226ce.Emscripten.clang"
  },
  "schemaVersion": "3.0.23",
  "updatedAt": "2020-04-08T21:11:01.763Z",
  "devdoc": {
    "methods": {}
  },
  "userdoc": {
    "methods": {
      "constructor": "///////////"
    }
  }
}