{
  "contractName": "SignitDoc",
  "abi": [
    {
      "anonymous": false,
      "inputs": [
        {
          "indexed": true,
          "internalType": "bytes32",
          "name": "_hash",
          "type": "bytes32"
        }
      ],
      "name": "DocRevoked",
      "type": "event"
    },
    {
      "anonymous": false,
      "inputs": [
        {
          "indexed": true,
          "internalType": "bytes32",
          "name": "hash",
          "type": "bytes32"
        },
        {
          "indexed": true,
          "internalType": "address",
          "name": "owner",
          "type": "address"
        }
      ],
      "name": "DocumentCreated",
      "type": "event"
    },
    {
      "anonymous": false,
      "inputs": [
        {
          "indexed": true,
          "internalType": "address",
          "name": "_signer",
          "type": "address"
        },
        {
          "indexed": true,
          "internalType": "bytes32",
          "name": "_hash",
          "type": "bytes32"
        }
      ],
      "name": "Revoked",
      "type": "event"
    },
    {
      "anonymous": false,
      "inputs": [
        {
          "indexed": true,
          "internalType": "address",
          "name": "_signer",
          "type": "address"
        },
        {
          "indexed": true,
          "internalType": "bytes32",
          "name": "_hash",
          "type": "bytes32"
        }
      ],
      "name": "Signed",
      "type": "event"
    },
    {
      "constant": true,
      "inputs": [
        {
          "internalType": "bytes32",
          "name": "",
          "type": "bytes32"
        }
      ],
      "name": "Documents",
      "outputs": [
        {
          "internalType": "bool",
          "name": "isValid",
          "type": "bool"
        },
        {
          "internalType": "uint256",
          "name": "documentTimeStamp",
          "type": "uint256"
        },
        {
          "internalType": "uint16",
          "name": "numberOfSigners",
          "type": "uint16"
        },
        {
          "internalType": "uint256",
          "name": "revokeCounter",
          "type": "uint256"
        },
        {
          "internalType": "address",
          "name": "issuer",
          "type": "address"
        },
        {
          "internalType": "enum SignitDoc.Status",
          "name": "status",
          "type": "uint8"
        }
      ],
      "payable": false,
      "stateMutability": "view",
      "type": "function"
    },
    {
      "constant": true,
      "inputs": [
        {
          "internalType": "bytes32",
          "name": "",
          "type": "bytes32"
        },
        {
          "internalType": "address",
          "name": "",
          "type": "address"
        }
      ],
      "name": "Signers",
      "outputs": [
        {
          "internalType": "uint256",
          "name": "signatureTimeStamp",
          "type": "uint256"
        },
        {
          "internalType": "bytes",
          "name": "signature",
          "type": "bytes"
        },
        {
          "internalType": "bool",
          "name": "isValid",
          "type": "bool"
        },
        {
          "internalType": "uint256",
          "name": "revokedSig",
          "type": "uint256"
        }
      ],
      "payable": false,
      "stateMutability": "view",
      "type": "function"
    },
    {
      "constant": false,
      "inputs": [
        {
          "internalType": "bytes32",
          "name": "_hash",
          "type": "bytes32"
        },
        {
          "internalType": "uint16",
          "name": "_numberOfSigners",
          "type": "uint16"
        }
      ],
      "name": "newDocument",
      "outputs": [
        {
          "internalType": "bool",
          "name": "success",
          "type": "bool"
        }
      ],
      "payable": false,
      "stateMutability": "nonpayable",
      "type": "function"
    },
    {
      "constant": true,
      "inputs": [
        {
          "internalType": "bytes32",
          "name": "_hash",
          "type": "bytes32"
        }
      ],
      "name": "signersList",
      "outputs": [
        {
          "internalType": "address[]",
          "name": "",
          "type": "address[]"
        }
      ],
      "payable": false,
      "stateMutability": "view",
      "type": "function"
    },
    {
      "constant": false,
      "inputs": [
        {
          "internalType": "bytes32",
          "name": "_hash",
          "type": "bytes32"
        },
        {
          "internalType": "bytes",
          "name": "_signature",
          "type": "bytes"
        }
      ],
      "name": "signDocument",
      "outputs": [
        {
          "internalType": "bool",
          "name": "success",
          "type": "bool"
        }
      ],
      "payable": false,
      "stateMutability": "nonpayable",
      "type": "function"
    },
    {
      "constant": true,
      "inputs": [
        {
          "internalType": "bytes",
          "name": "_signature",
          "type": "bytes"
        },
        {
          "internalType": "bytes32",
          "name": "_hash",
          "type": "bytes32"
        }
      ],
      "name": "verify",
      "outputs": [
        {
          "internalType": "address",
          "name": "",
          "type": "address"
        }
      ],
      "payable": false,
      "stateMutability": "pure",
      "type": "function"
    },
    {
      "constant": false,
      "inputs": [
        {
          "internalType": "uint8",
          "name": "_number",
          "type": "uint8"
        },
        {
          "internalType": "bytes32",
          "name": "_hash",
          "type": "bytes32"
        }
      ],
      "name": "setNumeberOfSigners",
      "outputs": [],
      "payable": false,
      "stateMutability": "nonpayable",
      "type": "function"
    },
    {
      "constant": false,
      "inputs": [
        {
          "internalType": "bytes32",
          "name": "_hash",
          "type": "bytes32"
        },
        {
          "internalType": "bytes",
          "name": "_signature",
          "type": "bytes"
        }
      ],
      "name": "revokeSignature",
      "outputs": [],
      "payable": false,
      "stateMutability": "nonpayable",
      "type": "function"
    }
  ],
  "bytecode": "0x608060405234801561001057600080fd5b506113a8806100206000396000f3fe608060405234801561001057600080fd5b50600436106100885760003560e01c8063a4c96e751161005b578063a4c96e75146102a4578063b16ec5cd14610381578063ce4932411461042c578063f4ea4644146104f157610088565b806353d1e5c41461008d5780636b406341146100c85780638cc06891146101cd57806394a4938014610250575b600080fd5b6100c6600480360360408110156100a357600080fd5b81019080803560ff169060200190929190803590602001909291905050506105d1565b005b61018b600480360360408110156100de57600080fd5b81019080803590602001906401000000008111156100fb57600080fd5b82018360208201111561010d57600080fd5b8035906020019184600183028401116401000000008311171561012f57600080fd5b91908080601f016020809104026020016040519081016040528093929190818152602001838380828437600081840152601f19601f820116905080830192505050505050509192919290803590602001909291905050506106de565b604051808273ffffffffffffffffffffffffffffffffffffffff1673ffffffffffffffffffffffffffffffffffffffff16815260200191505060405180910390f35b6101f9600480360360208110156101e357600080fd5b8101908080359060200190929190505050610705565b6040518080602001828103825283818151815260200191508051906020019060200280838360005b8381101561023c578082015181840152602081019050610221565b505050509050019250505060405180910390f35b61028a6004803603604081101561026657600080fd5b8101908080359060200190929190803561ffff1690602001909291905050506107a8565b604051808215151515815260200191505060405180910390f35b610367600480360360408110156102ba57600080fd5b8101908080359060200190929190803590602001906401000000008111156102e157600080fd5b8201836020820111156102f357600080fd5b8035906020019184600183028401116401000000008311171561031557600080fd5b91908080601f016020809104026020016040519081016040528093929190818152602001838380828437600081840152601f19601f820116905080830192505050505050509192919290505050610996565b604051808215151515815260200191505060405180910390f35b6103ad6004803603602081101561039757600080fd5b8101908080359060200190929190505050610d35565b60405180871515151581526020018681526020018561ffff1661ffff1681526020018481526020018373ffffffffffffffffffffffffffffffffffffffff1673ffffffffffffffffffffffffffffffffffffffff16815260200182600281111561041357fe5b60ff168152602001965050505050505060405180910390f35b6104ef6004803603604081101561044257600080fd5b81019080803590602001909291908035906020019064010000000081111561046957600080fd5b82018360208201111561047b57600080fd5b8035906020019184600183028401116401000000008311171561049d57600080fd5b91908080601f016020809104026020016040519081016040528093929190818152602001838380828437600081840152601f19601f820116905080830192505050505050509192919290505050610db9565b005b61053d6004803603604081101561050757600080fd5b8101908080359060200190929190803573ffffffffffffffffffffffffffffffffffffffff169060200190929190505050610fa3565b604051808581526020018060200184151515158152602001838152602001828103825285818151815260200191508051906020019080838360005b83811015610593578082015181840152602081019050610578565b50505050905090810190601f1680156105c05780820380516001836020036101000a031916815260200191505b509550505050505060405180910390f35b60008082815260200190815260200160002060040160009054906101000a900473ffffffffffffffffffffffffffffffffffffffff1673ffffffffffffffffffffffffffffffffffffffff163373ffffffffffffffffffffffffffffffffffffffff16146106a7576040517f08c379a00000000000000000000000000000000000000000000000000000000081526004018080602001828103825260168152602001807f6f6e6c79206973737565722063616e206368616e67650000000000000000000081525060200191505060405180910390fd5b8160ff1660008083815260200190815260200160002060020160006101000a81548161ffff021916908361ffff1602179055505050565b6000806106ea83611085565b905060006106f882866110dd565b9050809250505092915050565b606060008083815260200190815260200160002060050180548060200260200160405190810160405280929190818152602001828054801561079c57602002820191906000526020600020905b8160009054906101000a900473ffffffffffffffffffffffffffffffffffffffff1673ffffffffffffffffffffffffffffffffffffffff1681526020019060010190808311610752575b50505050509050919050565b600080151560008085815260200190815260200160002060000160009054906101000a900460ff16151514610845576040517f08c379a00000000000000000000000000000000000000000000000000000000081526004018080602001828103825260188152602001807f446f63756d656e746520616c726561647920657869737473000000000000000081525060200191505060405180910390fd5b3360008085815260200190815260200160002060040160006101000a81548173ffffffffffffffffffffffffffffffffffffffff021916908373ffffffffffffffffffffffffffffffffffffffff16021790555042600080858152602001908152602001600020600101819055508160008085815260200190815260200160002060020160006101000a81548161ffff021916908361ffff160217905550600080600085815260200190815260200160002060060160006101000a81548160ff0219169083600281111561091557fe5b0217905550600160008085815260200190815260200160002060000160006101000a81548160ff0219169083151502179055503373ffffffffffffffffffffffffffffffffffffffff16837fd106dccc757e4fc61a6b1c105faf11101b498441a1dbe97ffa5f9191f731eef760405160405180910390a36001905092915050565b6000806109a383856106de565b9050600060028111156109b257fe5b60008086815260200190815260200160002060060160009054906101000a900460ff1660028111156109e057fe5b148015610a515750600015156001600086815260200190815260200160002060008373ffffffffffffffffffffffffffffffffffffffff1673ffffffffffffffffffffffffffffffffffffffff16815260200190815260200160002060020160009054906101000a900460ff161515145b610ac3576040517f08c379a000000000000000000000000000000000000000000000000000000000815260040180806020018281038252601f8152602001807f5468697320446f63756d656e7420697320616c7265616479207369676e65640081525060200191505060405180910390fd5b426001600086815260200190815260200160002060008373ffffffffffffffffffffffffffffffffffffffff1673ffffffffffffffffffffffffffffffffffffffff16815260200190815260200160002060000181905550826001600086815260200190815260200160002060008373ffffffffffffffffffffffffffffffffffffffff1673ffffffffffffffffffffffffffffffffffffffff1681526020019081526020016000206001019080519060200190610b829291906112ce565b50600180600086815260200190815260200160002060008373ffffffffffffffffffffffffffffffffffffffff1673ffffffffffffffffffffffffffffffffffffffff16815260200190815260200160002060020160006101000a81548160ff0219169083151502179055506000808581526020019081526020016000206005018190806001815401808255809150509060018203906000526020600020016000909192909190916101000a81548173ffffffffffffffffffffffffffffffffffffffff021916908373ffffffffffffffffffffffffffffffffffffffff1602179055505060008085815260200190815260200160002060020160009054906101000a900461ffff1661ffff16600080868152602001908152602001600020600501805490501415610ce657600160008086815260200190815260200160002060060160006101000a81548160ff02191690836002811115610ce057fe5b02179055505b838173ffffffffffffffffffffffffffffffffffffffff167f6ce43e3def6c459ff915b7e85f0988330a741ef8b79e90dee95a8a976918672a60405160405180910390a3600191505092915050565b60006020528060005260406000206000915090508060000160009054906101000a900460ff16908060010154908060020160009054906101000a900461ffff16908060030154908060040160009054906101000a900473ffffffffffffffffffffffffffffffffffffffff16908060060160009054906101000a900460ff16905086565b6000610dc582846106de565b9050600115156001600085815260200190815260200160002060008373ffffffffffffffffffffffffffffffffffffffff1673ffffffffffffffffffffffffffffffffffffffff16815260200190815260200160002060020160009054906101000a900460ff16151514610ea1576040517f08c379a00000000000000000000000000000000000000000000000000000000081526004018080602001828103825260168152602001807f5369676e6174757265206973204e4f542076616c69640000000000000000000081525060200191505060405180910390fd5b6000339050610eb081856111e1565b838173ffffffffffffffffffffffffffffffffffffffff167f6e70be4be1a4aebd688b5523bd8b6278acac3963d71ebf2bd5ea50757047664b60405160405180910390a360008085815260200190815260200160002060020160009054906101000a900461ffff1661ffff16600080868152602001908152602001600020600301541415610f9d57600260008086815260200190815260200160002060060160006101000a81548160ff02191690836002811115610f6a57fe5b0217905550837fc21ce9a820cbf490b61a5852de4a19c50eb9c036c9f40be61ac297184448594e60405160405180910390a25b50505050565b600160205281600052604060002060205280600052604060002060009150915050806000015490806001018054600181600116156101000203166002900480601f0160208091040260200160405190810160405280929190818152602001828054600181600116156101000203166002900480156110625780601f1061103757610100808354040283529160200191611062565b820191906000526020600020905b81548152906001019060200180831161104557829003601f168201915b5050505050908060020160009054906101000a900460ff16908060030154905084565b60008160405160200180807f19457468657265756d205369676e6564204d6573736167653a0a333200000000815250601c01828152602001915050604051602081830303815290604052805190602001209050919050565b600060418251146110f157600090506111db565b60008060006020850151925060408501519150606085015160001a90507f7fffffffffffffffffffffffffffffff5d576e7357a4501ddfe92f46681b20a08260001c111561114557600093505050506111db565b601b8160ff161415801561115d5750601c8160ff1614155b1561116e57600093505050506111db565b60018682858560405160008152602001604052604051808581526020018460ff1660ff1681526020018381526020018281526020019450505050506020604051602081039080840390855afa1580156111cb573d6000803e3d6000fd5b5050506020604051035193505050505b92915050565b426001600083815260200190815260200160002060008473ffffffffffffffffffffffffffffffffffffffff1673ffffffffffffffffffffffffffffffffffffffff1681526020019081526020016000206003018190555060006001600083815260200190815260200160002060008473ffffffffffffffffffffffffffffffffffffffff1673ffffffffffffffffffffffffffffffffffffffff16815260200190815260200160002060020160006101000a81548160ff021916908315150217905550600080828152602001908152602001600020600301600081548092919060010191905055505050565b828054600181600116156101000203166002900490600052602060002090601f016020900481019282601f1061130f57805160ff191683800117855561133d565b8280016001018555821561133d579182015b8281111561133c578251825591602001919060010190611321565b5b50905061134a919061134e565b5090565b61137091905b8082111561136c576000816000905550600101611354565b5090565b9056fea265627a7a7231582001e448b4396d2e36bfa9ac2aa371a443f876e1f3e9a5758292011ed60c0f328464736f6c63430005100032",
  "source": "pragma solidity ^0.5.16;\n\nimport {ECDSA} from \"@OpenZeppelin/contracts/cryptography/ECDSA.sol\";\n\n\ncontract SignitDoc {\n    using ECDSA for bytes32;\n\n    /////////////////\n    // Contract State\n    ////////////////\n\n    mapping(bytes32 => Document) public Documents;\n    mapping(bytes32 => mapping(address => Signature)) public Signers;\n    enum Status {Pending, Signed, Revoked}\n\n    struct Document {\n        bool isValid;\n        uint256 documentTimeStamp;\n        uint16 numberOfSigners;\n        uint256 revokeCounter;\n        address issuer;\n        address[] signersArray;\n        Status status;\n    }\n\n    struct Signature {\n        uint256 signatureTimeStamp;\n        bytes signature;\n        bool isValid;\n        uint256 revokedSig;\n    }\n\n    // Document Hash identifier as the key to retrive its information\n    event DocumentCreated(bytes32 indexed hash, address indexed owner);\n    event Signed(address indexed _signer, bytes32 indexed _hash);\n    event Revoked(address indexed _signer, bytes32 indexed _hash);\n    event DocRevoked(bytes32 indexed _hash);\n\n    function newDocument(bytes32 _hash, uint16 _numberOfSigners)\n        public\n        returns (bool success)\n    {\n        require(Documents[_hash].isValid == false, \"Documente already exists\");\n        Documents[_hash].issuer = msg.sender;\n        Documents[_hash].documentTimeStamp = block.timestamp;\n        Documents[_hash].numberOfSigners = _numberOfSigners;\n        Documents[_hash].status = Status.Pending;\n        Documents[_hash].isValid = true;\n        emit DocumentCreated(_hash, msg.sender);\n        return true;\n    }\n\n    function signersList(bytes32 _hash) public view returns (address[] memory) {\n        return Documents[_hash].signersArray;\n    }\n\n    function signDocument(bytes32 _hash, bytes memory _signature)\n        public\n        returns (bool success)\n    {\n        address validSignature;\n        validSignature = verify(_signature, _hash);\n        // require(\n        //     validSignature == msg.sender,\n        //     \"Signer do NOT own this Signature\"\n        // );\n        require(\n            Documents[_hash].status == Status.Pending &&\n                Signers[_hash][validSignature].isValid == false,\n            \"This Document is already signed\"\n        );\n        Signers[_hash][validSignature].signatureTimeStamp = block.timestamp;\n        Signers[_hash][validSignature].signature = _signature;\n        Signers[_hash][validSignature].isValid = true;\n        Documents[_hash].signersArray.push(validSignature);\n        if (\n            Documents[_hash].signersArray.length ==\n            Documents[_hash].numberOfSigners\n        ) {\n            Documents[_hash].status = Status.Signed;\n        }\n        emit Signed(validSignature, _hash);\n        return true;\n    }\n\n    function verify(bytes memory _signature, bytes32 _hash)\n        public\n        pure\n        returns (address)\n    {\n        bytes32 newhash = ECDSA.toEthSignedMessageHash(_hash);\n        address signer = ECDSA.recover(newhash, _signature);\n        return signer;\n    }\n\n    function setNumeberOfSigners(uint8 _number, bytes32 _hash) public {\n        require(\n            msg.sender == Documents[_hash].issuer,\n            \"only issuer can change\"\n        );\n        Documents[_hash].numberOfSigners = _number;\n    }\n\n    function revokeSignature(bytes32 _hash, bytes memory _signature) public {\n        address validSignature;\n        validSignature = verify(_signature, _hash);\n        require(\n            Signers[_hash][validSignature].isValid == true,\n            \"Signature is NOT valid\"\n        );\n        address signer = msg.sender;\n        _revoke(signer, _hash);\n        emit Revoked(signer, _hash);\n        if (\n            Documents[_hash].revokeCounter == Documents[_hash].numberOfSigners\n        ) {\n            Documents[_hash].status = Status.Revoked;\n            emit DocRevoked(_hash);\n        }\n    }\n\n    function _revoke(address _signer, bytes32 _hash) internal {\n        Signers[_hash][_signer].revokedSig = now;\n        Signers[_hash][_signer].isValid = false;\n        Documents[_hash].revokeCounter++;\n    }\n}\n",
  "sourcePath": "/Users/eduardopezzi/Documents/Blockchain Course/Dapp2/signIT_project/contracts/signitContract.sol",
  "compiler": {
    "name": "solc",
    "version": "0.5.16+commit.9c3226ce.Emscripten.clang"
  },
  "schemaVersion": "3.0.23",
  "updatedAt": "2020-04-22T14:28:39.142Z",
  "devdoc": {
    "methods": {}
  },
  "userdoc": {
    "methods": {}
  }
}